:100000000C942A000C9434000C9434000C943400AA
:100010000C9434000C9434000C9434000C94340090
:100020000C9434000C9434000C9434000C94340080
:100030000C9434000C9434000C9434000C94340070
:100040000C9434000C9434000C9434000C94340060
:100050000C94340011241FBECFE5D8E0DEBFCDBF25
:100060000E94F3000C940D010C94000011B887E479
:1000700080B984E086BF089584EA86BF06B607FE8D
:10008000FDCF089584E986BF089583B984E886BFCB
:1000900006B607FEFDCF0895862B0C94450024EC90
:1000A000613009F024E826BF06B607FEFDCF23B174
:1000B000FC01208308950E9436000E943C0060E00D
:1000C00080ED0E944C0080E00E9445000C944200AC
:1000D000EF92FF920F931F93CF93DF93EC018B016D
:1000E0007A010E943C0060E080ED0E944C0080E0BC
:1000F0000E9445000E9442000E943C0061E080EDA9
:100100000E944C0061E0C7010E944F0061E0C801FD
:100110000E944F0060E0CE010E944F00DF91CF911E
:100120001F910F91FF90EF900C9442001F93CF937B
:10013000DF93C82FD62F142F0E943C0060E080ED83
:100140000E944C0080E00E944500812F0E944500E3
:100150008D2F0E9445008C2F0E944500DF91CF918A
:100160001F910C94420088E08AB986E880BD83E341
:1001700089B908955D9BFECF8CB908951F93CF93E5
:10018000DF93182FD62FC42F82958F70805D0E9429
:10019000BA00812F8F70805D0E94BA008AE30E94AE
:1001A000BA008D2F82958F70805D0E94BA008D2FCE
:1001B0008F70805D0E94BA008AE30E94BA008C2F83
:1001C00082958F70805D0E94BA008C2F8F70805D49
:1001D0000E94BA008DE00E94BA008AE0DF91CF91C0
:1001E0001F910C94BA00CF93DF9300D01F92CDB72C
:1001F000DEB70E94B3000E945B00AE014D5F5F4F0F
:10020000BE016E5F7F4FCE0101960E9468004B8158
:0E0210006A8189810E94BE00F0CFF894FFCF72
:00000001FF
